:020000040800F2
:1000000090070020950100089D0100089F0100084D
:10001000A1010008A3010008A501000800000000DC
:10002000000000000000000000000000A701000820
:10003000A901000800000000AB010008AD010008A4
:10004000AF010008AF010008AF010008AF010008D0
:10005000AF010008AF010008AF010008AF010008C0
:10006000AF010008AF010008AF010008AF010008B0
:10007000AF010008AF010008AF010008AF010008A0
:10008000AF010008AF010008AF010008AF01000890
:10009000AF010008AF010008AF010008AF01000880
:1000A000AF010008F5050008AF010008AF01000826
:1000B000AF010008AF010008AF010008AF01000860
:1000C000AF010008AF010008AF0100086D0400088F
:1000D000AF010008AF0100083D0600084D0600080A
:1000E000AF010008AF010008AF01000800F002F8FE
:1000F00000F041F80AA090E8000C82448344AAF181
:100100000107DA4501D100F036F8AFF2090EBAE87E
:100110000F0013F0010F18BFFB1A43F0010318473B
:10012000680F0000880F0000103A24BF78C878C11B
:10013000FAD8520724BF30C830C144BF04680C60ED
:10014000704700000023002400250026103A28BF35
:1001500078C1FBD8520728BF30C148BF0B60704739
:10016000642900F07F80002070471FB500F0BAF8C6
:100170001FBD10B510BD00F03EF91146FFF7F5FFA9
:1001800000F0CAFE00F05CF903B4FFF7F2FF03BC15
:1001900000F066F90948804709480047FEE7FEE796
:1001A000FEE7FEE7FEE7FEE7FEE7FEE7FEE7FEE727
:1001B00004480549054A064B704700009D050008A4
:1001C000ED0000089001002090070020900300201F
:1001D000900300200FB41CB5074B06AA7B44694668
:1001E0000090059800F0EFF80020694600F0FEF856
:1001F0001CBC5DF814FB00000D0200002DE9F0416D
:100200000E460446002020622046E168884730B34D
:10021000252805D0D4E901219047206A401CF2E747
:10022000E168204600278847050018D0A5F1410065
:10023000192802D820354FF4006732462946204657
:100240002760FFF78DFF40B1012804D0F61D26F08E
:1002500007060836D8E7361DD6E72846DAE7206ACB
:10026000BDE8F0812DE9F0410646002410687529AB
:10027000314616A510D0AFF30080002802DA4042C4
:1002800013A507E031688A0701D512A502E04907E6
:1002900004D511A5012401E0AFF3008000210A225A
:1002A00006F1240709E0B0FBF2FCB0FBF2F302FB1D
:1002B0001C00303078541846491C0028F3D12346DE
:1002C0002A463046BDE8F04100F01EB800000000AC
:1002D0002D0000002B000000200000007047704738
:1002E0007047000070B5064C7C44064D7D4404E028
:1002F0002046016808448047241DAC42F8D170BDF7
:10030000BC0D0000C00D00002DE9F0470D469946D8
:100310009246044600F124080168880604D5E06985
:1003200021F01001216000E00120A84201DD471BFF
:1003300000E00027A1697A1902EB0900081AA06100
:100340002078C00602D42046AFF30080002608E0E3
:10035000D4E901211AF806009047206A401C761C57
:1003600020624E45F4DB2078C0060AD52046AFF364
:10037000008006E0D4E9012130209047206A401C2B
:100380002062381EA7F10107F4DC07E0D4E901215F
:1003900018F805009047206A401C2062281EA5F12D
:1003A0000105F3DC2046AFF300802078000602D57B
:1003B0000220BDE8F0870120FBE7000001694A1C2C
:1003C00002610878704700B58FB0CDE90131002196
:1003D000059105497944CDE9031011466846FFF7B8
:1003E0000DFF0FB000BD0000E5FFFFFF0A6802F837
:1003F000010B0A607047754600F02CF8AE46050008
:100400006946534620F00700854618B020B5FFF72F
:10041000CFFEBDE820404FF000064FF000074FF040
:1004200000084FF0000BAC46ACE8C009ACE8C009CE
:10043000ACE8C009ACE8C00921F007018D4670475F
:1004400010B50446AFF300802046BDE81040FFF72A
:100450009BBE00000048704740000020704700002D
:1004600001491820ABBEFEE72600020080B543F22A
:100470000400C4F201000188090644BF81885FEAD4
:10048000817114D48188C90710D0018980888007C0
:1004900058BF80BD40F2D000C2F200000268017473
:1004A000511C016001F0070000F0A0F980BD40F28E
:1004B000D001C2F200014A68013A4A6002D0FF212D
:1004C0000181DFE700210181018821F080010180A5
:1004D000D8E7000080B500F001F880BD82B041F29D
:1004E00004000021C4F202000191009150F8041CA4
:1004F00041F4803140F8041C50F8041C01F4003130
:100500000091019901310191009919B90199B1F551
:10051000A06FF1D150F8041C890354BF00210121C0
:1005200000910099012936D142F20001C4F2020182
:100530000A6842F010020A600A6822F007020A60A4
:100540000A6842F002020A60016801600168016005
:10055000016841F480610160016821F47C1101604F
:10056000016841F4E811016050F8041C41F0807109
:1005700040F8041C50F8041C8901FBD5016821F0E7
:1005800003010160016841F002010160016801F0AE
:100590000C010829FAD102B07047000080B541F281
:1005A0000000C4F202000168002241F00101016074
:1005B0004168CFF6FF021140416001684FF6FF72BB
:1005C000CFF6F66211400160016821F480210160DC
:1005D000416821F4FE0141604FF41F018160FFF783
:1005E00079FF4EF60850CEF200004FF00061016036
:1005F00080BD00002420C4F20000018840F2D00237
:10060000C2F200029160B0F80008D06042F61040DB
:10061000C4F20100018821F0010101800421516030
:10062000B0F8F41341F08001A0F8F41342F208404E
:10063000C4F20100012101607047000080B540F262
:100640000400C2F2000000F045FB80BD80B540F21E
:100650000C00C2F2000000F03DFB80BD80B500F050
:1006600029FC00F03DFC00F049FC80BD80B500F0A5
:100670002FFC80BD70B500F0B1F9014640F27C104E
:10068000C2F2000000F04AFB054600F0CBF901463B
:1006900040F28410C2F2000000F040FB40F208116A
:1006A000C2F200010C68632C14D8ACB10646284491
:1006B000211A40F21400C2F2000000F0EBFA40F2FE
:1006C000E801C2F200010968044641B100F0D6F920
:1006D000014605E0204617E00024002014E0A91B95
:1006E00040F22800C2F2000000F0D4FA211A0219E8
:1006F00021EAE1704AF6C77422EAE271A042A8BF7B
:100700002046A142B8BF0C4600F074F9204600F024
:100710008FF970BD10B5044600F0A2F940F2A001B7
:10072000C2F200010968411A0020A14228BF01203D
:1007300010BD000040F20410C2F20000006841F653
:100740006B51CFF6F301A0FB0101880A704700004E
:1007500040F20000C2F200000068002818BF01202B
:100760007047000080B5014640F20C00C2F2000064
:1007700000F0C6FA80BD000010B504460120022139
:1007800000F0BAF840F2E800C2F20000046010BDC8
:1007900080B540F2A800C2F2000000F055FA40F225
:1007A000BC00C2F2000000F04FFA40F2F000C2F2CA
:1007B000000000F049FA80BD10B540F20C14C2F2FE
:1007C00000042168814208BF10BD2060FFF752FF7E
:1007D000FFF7DEFF00F0DAF8206800F091F910BDB5
:1007E00040F2A401C2F200010870704780B548B31E
:1007F00007283ED142F62040C4F2010030F8041C24
:1008000046F60102914205D140F20411C2F2000104
:1008100000220A60018821F4807101804AF6147177
:10082000818346F6700120F8041C40F2A401C2F254
:1008300000010978002908BF80BD018841F480616A
:10084000018080BD42F62040C4F20100018821F4FD
:100850008061018046F6010120F8041C018841F402
:100860008071018030F8101C21F0080120F8101C64
:1008700080BD42F62041C4F2010131F8102C12076C
:1008800020D58B8B4AF6C87C00FB0C3040F2041E4E
:10089000C2F2000ECEF800008A8B8B889A4284BF89
:1008A000A0EB0C00CEF8000031F8100C20F008008E
:1008B00021F8100C088820F48070088046F60300A8
:1008C00021F8040C80BD0000B0B540F2D004C2F2A3
:1008D0000004216860B1024620688D18854208BF77
:1008E000B0BD00BFFFF768FF20688542FAD1B0BDF8
:1008F0000846FFF761FFB0BD70B5044640F2E8005E
:10090000C2F20000002640F20815066040F2140012
:10091000C2F20005C2F20000296000F0B7F940F20F
:100920002800C2F2000000F0B1F940F2EC01601EB4
:10093000C2F2000103280C700AD8DFE800F0020BB5
:100940001219012000F05CF8012000F077F815E0A2
:100950002E6013E0002000F053F8002000F06EF845
:100960000CE0002000F04CF8012000F067F805E0F2
:10097000012000F045F8002000F060F800F070F869
:1009800040F2A001C2F20001086070BD80B540F2E3
:100990001010C2F2000001684A1C0729026016DB31
:1009A0000021016040F60800C4F2010040F200019D
:1009B0000068C2F200010A6800F48050824208BF59
:1009C00080BD0860002818BF012000F051F880BDEC
:1009D00042F24C40C4F201000068704740F2D0007F
:1009E000C2F200008068704740F2D000C2F20000FE
:1009F000007C704742F63441C4F201010880704720
:100A000042F62041C4F201010A88042322F00502C3
:100A10000A800A88002818BF012342EA03000880E0
:100A20007047000040F2D000C2F20000C06870477A
:100A300042F63841C4F201010880704742F6204175
:100A4000C4F201010A88102322F050020A800A88A9
:100A5000002818BF402342EA0300088070470000C6
:100A600010B5FFF7BBFF0446FFF7DCFF204410BDC5
:100A700080B580F00100FFF7B3FE80BD80B5FFF7C1
:100A8000B3FF40F2E801C2F2000109684A1EB2FA5F
:100A900082F25209D0404A1CB2FA82F252099040C6
:100AA00000F01800102809D008280FD060B940F2D3
:100AB0001410C2F200000068400080BD40F2141023
:100AC000C2F2000001210160084680BD40F214100E
:100AD000C2F200004FF0FF310160084680BD000007
:100AE000002848BF704700F01F01012202FA01F1FF
:100AF0004EF200124009CEF2000242F82010704778
:100B0000C00618BF7047F0B581B0FFF713FE074667
:100B1000FFF7A6FF0646FFF75BFF592140F21814C6
:100B20004843C2F20004050B1FA120463A46334653
:100B30000095FFF74FFBFFF757FFC1074FF030015C
:100B400008BF2E21E17181074FF0310158BF2E21DE
:100B5000217241074FF0320158BF2E216172010707
:100B60004FF0330158BF2E21A172C1064FF034015E
:100B700058BF2E21217381064FF0350158BF2E2119
:100B8000617341064FF0360158BF2E2100064FF029
:100B90003700A17358BF2E20E0732046FFF7E2FD17
:100BA00001B0BDE8F04070470D706174683D5B783E
:100BB00078787820787878785D20646973743D253A
:100BC0006420636F756E743D256420626174743DAA
:100BD00025642020202000000429017232D8DFE89B
:100BE00001F0031322292E00D0E90023B3F5805F22
:100BF00012BF13614FF4805353614A1E032A21D858
:100C0000DFE802F00211181DD0E90023B3F5805F80
:100C100012BF53614FF48053136104290FD003298D
:100C200008D002290ED14FF4C8720429C26006D040
:100C3000032907D1C8220429C26018BF70474FF4A6
:100C40004871C16070470000017A022938BF7047BF
:100C5000D0E9032101319142016109D300210161F1
:100C6000D0E90010CA6810421CBF48617047086193
:100C70007047000010B5044601209040C4E9001000
:100C800020460121FFF7A8FF204610BD0021C0E942
:100C900003117047B0B502460069D2E9003EA1EBEE
:100CA000000CD2E9024046F215150844C7F69165DA
:100CB0004B43A842B8BF054649F6EB6004FB0C3332
:100CC000C8F26E108542D8BF054605FB0E30C2E95A
:100CD0000351B0BD41680A88120658BF70470268C8
:100CE00032B113784BB1531C036010788880704781
:100CF000888920F08000888170470021016070475A
:100D00000268002A1CBF0020704742680160908979
:100D100040F08000908101207047000010B502462D
:100D20004068D2F800E0A1EB000CBEF1000F51606A
:100D30000BD000217346604603F00F042044B1EB52
:100D4000131F4FEA1313F7D100E060464CEA0E116F
:100D5000116010BD2DE9F04741F21801C4F2020103
:100D600041F60C220A600522C0F206024A6040F6F3
:100D7000000144F64222C4F20101CAF2A4420A6010
:100D80004AF2AA42C4F244424A6044F24042C4F2E7
:100D90004422C1F8002440F6044144F64422C4F23F
:100DA0000101CAF6A2220A604FF60C4143F2000686
:100DB000CFF6FF71C4F201064FF0010826F801805A
:100DC0004FF62841CFF6FF71032272524FF62C41A5
:100DD000CFF6FF714AF6C77272524FF61841CFF63E
:100DE000FF7146F6680272524FF62041CFF6FF714E
:100DF0004FF4007272524FF64441CFF6FF714FF438
:100E0000004244F20C457252C4F2000540F6A6615D
:100E100025F8041C40F2391144F60C07A5F8FC1320
:100E2000C4F200070C213980398842F21049298028
:100E3000C4F201094FF0E061C9F800100821C9F8B7
:100E400024104021B18040F23E3118243180C4F298
:100E500000046721A4F8F017B4F8F017824624F8CC
:100E6000101C4FF480712180218819202180FFF708
:100E700037FE2620FFF734FE2720FFF731FE232020
:100E8000FFF72EFE28884FF0804140F40050288064
:100E9000388840F400503880308840F0400030807E
:100EA000A4F8E887B4F8E80708805046A9F8F08766
:100EB000BDE8F08780B540F2A80040F60041C2F2DC
:100EC0000000C4F201010C22FFF7D4FE80BD000037
:100ED00080B540F2D000C2F20000FFF73BFF80BDBA
:100EE00080B540F2BC0040F60041C2F20000C4F2FE
:100EF00001010622FFF7BEFE80BD000080B540F272
:100F0000F00040F60001C2F20000C4F2010100222C
:100F1000FFF7B0FE80BD0000FFF71AFC38B10020DB
:100F2000FFF7D2FCF8E700BF0020FFF7CDFCFFF78A
:100F30000FFC0028F8D04FF0FF30FFF71DFC00BF7A
:100F40004FF4D270FFF7E6FB18B90020FFF7BCFCA6
:100F5000F6E701200421FFF7CFFC00BFB420FFF724
:100F6000D9FB30B90020FFF7AFFCF7E70020FFF70F
:100F7000ABFCFFF739FDC006F8D50120FFF7FCFBFD
:100F80004FF4A070FFF7C6FB18B90020FFF79CFCD8
:100F9000F6E700200121FFF7AFFC4FF49660FFF762
:100FA00093FC0120FFF71CFC3220FFF78DFCFFF7BC
:100FB000C1FB46280AD800BFFFF7BCFB30B1322086
:100FC000FFF782FCFFF7B6FB4728F5D30020FFF7B9
:100FD00007FC4FF0FF30FFF7CFFB00BFDC20FFF72F
:100FE00099FB18B90020FFF76FFCF7E703200321F6
:100FF000FFF782FC8220FFF78DFB18B90020FFF776
:1010000063FCF7E700200121FFF776FC4FF49660C0
:10101000FFF75AFC0120FFF7E3FB00BF3220FFF788
:1010200053FCFFF787FB4628F8D8FFF783FB00281F
:10103000F4D00020FFF7D4FB03200321FFF75CFC72
:101040003C20FFF767FB30B90020FFF73DFCF7E7D6
:101050000020FFF739FCFFF7C7FCC006F8D50120D8
:10106000FFF78AFB4FF42F70FFF754FB18B90020ED
:10107000FFF72AFCF6E700200121FFF73DFC00BF47
:101080000020FFF721FCFBE7B01000080000002063
:101090003C00000028010008EC100008400000207F
:1010A0005007000044010008B5F5FFFFC1F5FFFF40
:1010B000001000000000000000440040000000009C
:1010C00000480040F055000064000000E803000004
:1010D000000000000000000098080000150000005B
:0C10E000E600000000000000000000001E
:040000050800019559
:00000001FF
