:020000040800F2
:10000000E8060020950100089D0100089F010008F6
:10001000A1010008A3010008A501000800000000DC
:10002000000000000000000000000000A701000820
:10003000A901000800000000AB010008AD010008A4
:10004000AF010008AF010008AF010008AF010008D0
:10005000AF010008AF010008AF010008AF010008C0
:10006000AF010008AF010008AF010008AF010008B0
:10007000AF010008AF010008AF010008AF010008A0
:10008000AF010008AF010008AF010008AF01000890
:10009000AF010008AF010008AF010008AF01000880
:1000A000AF01000875050008AF010008AF010008A6
:1000B000AF010008AF010008AF010008AF01000860
:1000C000AF010008AF010008AF010008ED03000810
:1000D000AF010008AF010008B1050008C105000824
:1000E000AF010008AF010008AF01000800F002F8FE
:1000F00000F041F80AA090E8000C82448344AAF181
:100100000107DA4501D100F036F8AFF2090EBAE87E
:100110000F0013F0010F18BFFB1A43F0010318473B
:1001200084190000A4190000103A24BF78C878C1CF
:10013000FAD8520724BF30C830C144BF04680C60ED
:10014000704700000023002400250026103A28BF35
:1001500078C1FBD8520728BF30C148BF0B60704739
:10016000642900F03780002070471FB500F098F830
:100170001FBD10B510BD00F0FEF81146FFF7F5FFEA
:1001800001F0DEF900F01CF903B4FFF7F2FF03BC45
:1001900000F026F90948804709480047FEE7FEE7D6
:1001A000FEE7FEE7FEE7FEE7FEE7FEE7FEE7FEE727
:1001B00004480549054A064B704700001D05000824
:1001C000ED000008E8000020E8060020E80200201A
:1001D000E80200202DE9F041064600241068752948
:1001E000314616A510D0AFF30080002802DA404255
:1001F00013A507E031688A0701D512A502E0490777
:1002000004D511A5012401E0AFF3008000210A22EA
:1002100006F1240709E0B0FBF2FCB0FBF2F302FBAD
:100220001C00303078541846491C0028F3D123466E
:100230002A463046BDE8F04100F044B80000000016
:100240002D0000002B000000200000004FF00002F5
:1002500000B5134694469646203922BFA0E80C50BC
:10026000A0E80C50B1F12001BFF4F7AF090728BF97
:10027000A0E80C5048BF0CC05DF804EB890028BF13
:1002800040F8042B08BF704748BF20F8022B11F03C
:10029000804F18BF00F8012B7047704770477047B8
:1002A00070B5064C7C44064D7D4404E02046016850
:1002B00008448047241DAC42F8D170BD1C180000D2
:1002C000201800002DE9F0470D4699469246044655
:1002D00000F124080168880604D5E06921F01001C6
:1002E000216000E00120A84201DD471B00E000275B
:1002F000A1697A1902EB0900081AA0612078C006EA
:1003000002D42046AFF30080002608E0D4E90121A2
:100310001AF806009047206A401C761C20624E4561
:10032000F4DB2078C0060AD52046AFF3008006E053
:10033000D4E9012130209047206A401C2062381EF9
:10034000A7F10107F4DC07E0D4E9012118F8050062
:100350009047206A401C2062281EA5F10105F3DCAD
:100360002046AFF300802078000602D50220BDE8C9
:10037000F0870120FBE7754600F02CF8AE4605003B
:100380006946534620F00700854618B020B5FFF7B0
:100390000FFFBDE820404FF000064FF000074FF080
:1003A00000084FF0000BAC46ACE8C009ACE8C0094F
:1003B000ACE8C009ACE8C00921F007018D467047E0
:1003C00010B50446AFF300802046BDE81040FFF7AB
:1003D000DBBE000000487047180000207047000096
:1003E00001491820ABBEFEE72600020080B543F2AB
:1003F0000400C4F201000188090644BF81885FEA55
:10040000817114D48188C90710D001898088800740
:1004100058BF80BD40F2A000C2F200000268017423
:10042000511C016001F0070000F022F980BD40F28C
:10043000A001C2F200014A68013A4A6002D0FF21DD
:100440000181DFE700210181018821F08001018025
:10045000D8E7000080B500F001F880BD82B041F21D
:1004600004000021C4F202000191009150F8041C24
:1004700041F4803140F8041C50F8041C01F40031B0
:100480000091019901310191009919B90199B1F5D2
:10049000A06FF1D150F8041C890354BF0021012141
:1004A00000910099012936D142F20001C4F2020103
:1004B0000A6842F010020A600A6822F007020A6025
:1004C0000A6842F002020A60016801600168016086
:1004D000016841F480610160016821F47C110160D0
:1004E000016841F4E811016050F8041C41F080718A
:1004F00040F8041C50F8041C8901FBD5016821F068
:1005000003010160016841F002010160016801F02E
:100510000C010829FAD102B07047000080B541F201
:100520000000C4F202000168002241F001010160F4
:100530004168CFF6FF021140416001684FF6FF723B
:10054000CFF6F66211400160016821F4802101605C
:10055000416821F4FE0141604FF41F018160FFF703
:1005600079FF4EF60850CEF200004FF000610160B6
:1005700080BD00002420C4F20000018840F2A002E7
:10058000C2F200029160B0F80008D06042F610405C
:10059000C4F20100018821F00101018004215160B1
:1005A000B0F8F41341F08001A0F8F4137047000094
:1005B00080B540F20400C2F2000000F0B7FE80BD3A
:1005C00080B540F20C00C2F2000000F0AFFE80BD2A
:1005D00080B500F083FF00F097FF00F0A3FF80BD1F
:1005E00080B500F089FF80BD022888BF704780B5C4
:1005F00040B204A252F8200000F03EFEBDE8804068
:10060000704700BF780000208C000020B800002058
:1006100080B540F27800C2F2000000F065FE40F2C2
:100620008C00C2F2000000F05FFE40F2B800C2F29F
:10063000000000F059FE80BDF0B581B04AF6C777E2
:100640001C461546B94203D9BC4209D901B0F0BDD8
:100650000E4600F0B7F8304600F0AEF8BC42F5D8D0
:10066000284600F0C7F8204600F0BEF801B0F0BD03
:1006700080B508B3072836D142F62040C4F2010005
:1006800030F8041C46F60102914205D140F2CC013B
:10069000C2F2000100220A60018821F48071018009
:1006A0004AF61471818346F6700120F8041C018813
:1006B00041F48061018080BD42F62040C4F2010017
:1006C000018821F48061018046F6010120F8041CB4
:1006D000018841F48071018030F8101C21F008017C
:1006E00020F8101C80BD42F62041C4F2010131F80F
:1006F000102C120758BF80BD8B8B4AF6C87C00FBBC
:100700000C3040F2CC0EC2F2000ECEF800008A8B04
:100710008B889A4284BFA0EB0C00CEF8000031F821
:10072000100C20F0080021F8100C088820F48070CC
:10073000088046F6030021F8040C80BDB0B560B116
:1007400040F2A004C2F2000421680D18204600F017
:1007500003FE20688542F9D1B0BD40F2A000C2F28C
:10076000000000F0F9FDB0BD80B540F2D000C2F24B
:10077000000001684A1C0729026016DB00210160A5
:1007800040F60800C4F2010040F200010068C2F225
:1007900000010A6800F48050824208BF80BD0860F2
:1007A000002818BF012000F037F880BD40F2A000FB
:1007B000C2F20000007C704742F63441C4F20101ED
:1007C0000880704742F62041C4F201010A880423E0
:1007D00022F005020A800A88002818BF012342EA95
:1007E000030008807047000042F63841C4F201015E
:1007F0000880704742F62041C4F201010A881023A4
:1008000022F050020A800A88002818BF402342EADA
:100810000300088070470000002808BF704740F2BE
:10082000D400C2F2000001684A1C0129C8BF00229E
:1008300002607047002848BF704700F01F01012286
:1008400002FA01F14EF200124009CEF2000242F823
:100850002010704740F2E40CC2F2000CDCF80010EB
:10086000436F4A1C012BCCF8002030D140F2150216
:10087000C2F200021278914229DB026A90F87E10DF
:10088000012A08D169B190F87F10012904BF012124
:1008900080F8801008E0012904BF012180F87F1052
:1008A00002E0012180F87E1090F87E1001290ED11F
:1008B00090F87F1001290AD190F88010012918BF03
:1008C000704701218167022101700021C1657047D5
:1008D000426890F8811062B1012902D190F883102A
:1008E000A1B190F88210012904BF012180F8841081
:1008F0000FE039B190F88310012904BF012180F87D
:10090000821006E0012180F8811002E0012180F8C8
:10091000831090F88110012914D190F883100129D7
:1009200010D190F8821001290CD190F8841001297F
:1009300018BF7047012180F87C100421017000214C
:10094000C16541657047000010B50446006F411C49
:10095000B0F5A07F216730DB00200121FFF744FEC6
:10096000216A94F88500012905D1012804BF0120DE
:1009700084F886000FE058B194F8860001280AD167
:10098000012084F8870002200121FFF72DFE02E0FC
:10099000012084F8850094F8850001280DD194F891
:1009A0008600012809D194F88700012818BF10BDDE
:1009B00005202070002084F87C0010BD10B504468E
:1009C000FFF7F4FE00F0010184F824006160C0F339
:1009D0004001A160C0F38001E160C0F3C00121616A
:1009E000C0F300116161C0F34011A161C0F3801137
:1009F000C009E161206210BDC0E91112704700001A
:100A0000416800294ED1826882B9C268012A0DD19D
:100A10000269012A0AD14269012A07D182692AB9E9
:100A2000C2691AB9026A002A00F0B880D1BB826894
:100A300082B9C26872B90269012A0BD14269012ADE
:100A400008D18269012A05D1C2691AB9026A002A4D
:100A500000F0B08031BB8268012A0FD1C268012A40
:100A60000CD10269012A09D142693AB982692AB9CD
:100A7000C2691AB9026A002A00F0A08091B982689E
:100A800082B9C26872B9026962B94269012A09D1A0
:100A90008269012A06D1C269012A03D1026A002AA9
:100AA00000F08F80012910D18268012A0DD1C2681F
:100AB000012A0AD1026942B9426932B9826922B96E
:100AC000C26912B9026A002A6BD0A1B9826892B9D0
:100AD000C26882B9026972B9426962B98269012A3F
:100AE00009D1C269012A06D1026A012A02BF6FF048
:100AF00009010165704701290FD18268012A0CD1D3
:100B0000C26852B9026942B9426932B9826922B9EE
:100B1000C26912B9026A002A46D099B982688AB9B4
:100B2000C2687AB902696AB942695AB982694AB92E
:100B3000C269012A06D1026A012A02BF6FF00E01C2
:100B40000165704701290DD182685AB9C2684AB956
:100B500002693AB942692AB982691AB9C2690AB9FD
:100B6000026A22B301B1704781680029FBD1C168D4
:100B70000029F8D101690029F5D141690029F2D194
:100B80008169002918BF7047C1690029EBD1016A4A
:100B9000012904BF6FF01301016570470021016551
:100BA00070470A21016570470F21016570471421C4
:100BB000016570476FF0020101657047072101650B
:100BC00070476FF006010165704700004168002919
:100BD0004ED1826882B9C268012A0DD10269012A08
:100BE0000AD14269012A07D182692AB9C2691AB9B0
:100BF000026A002A00F0FC80D1BB826882B9C26818
:100C000072B90269012A0BD14269012A08D18269AD
:100C1000012A05D1C2691AB9026A002A00F0F480DB
:100C200031BB8268012A0FD1C268012A0CD1026946
:100C3000012A09D142693AB982692AB9C2691AB945
:100C4000026A002A00F0E48091B9826882B9C26821
:100C500072B9026962B94269012A09D18269012A1D
:100C600006D1C269012A03D1026A002A00F0D380AA
:100C7000012911D18268012A0ED1C268012A0BD143
:100C800002694AB942693AB982692AB9C2691AB98C
:100C9000026A002A00F0AF80A1B9826892B9C268E6
:100CA00082B9026972B9426962B98269012A09D1BD
:100CB000C269012A06D1026A012A02BF6FF005014A
:100CC00001657047012910D18268012A0DD1C268DF
:100CD0005AB902694AB942693AB982692AB9C269FC
:100CE0001AB9026A002A00F0898099B982688AB923
:100CF000C2687AB902696AB942695AB982694AB95D
:100D0000C269012A06D1026A012A02BF6FF00801F6
:100D10000165704701290ED1826862B9C26852B973
:100D2000026942B9426932B9826922B9C26912B90B
:100D3000026A002A65D091B9826882B9C26872B924
:100D4000026962B9426952B9826942B9C26932B96B
:100D5000026A012A02BF6FF00B0101657047012989
:100D600045D18268012A10D1C268012A0DD10269D9
:100D7000012A0AD14269012A07D18269012A04D1D4
:100D8000C269012A01D1026AB2B101292FD1816859
:100D900001292CD1C168012929D10169012926D154
:100DA0004169012923D18169012920D1C169012922
:100DB0001DD1016A01291AD140F21403C2F20003C5
:100DC000C26E1B786FF00A0101659A4202F10101BF
:100DD000C1660CDB416F4A1C0029426718BF70478F
:100DE00000216FF01D02C0E914210121017070473C
:100DF00000210165704706210165704709210165E1
:100E000070470C21016570474FF0FF310165704755
:100E10000321016570476FF0020101657047000012
:100E2000416800294ED1826882B9C268012A0DD179
:100E30000269012A0AD14269012A07D182692AB9C5
:100E4000C2691AB9026A002A00F0B980D1BB82686F
:100E500082B9C26872B90269012A0BD14269012ABA
:100E600008D18269012A05D1C2691AB9026A002A29
:100E700000F0AD8031BB8268012A0FD1C268012A1F
:100E80000CD10269012A09D142693AB982692AB9A9
:100E9000C2691AB9026A002A00F0918091B9826889
:100EA00082B9C26872B9026962B94269012A09D17C
:100EB0008269012A06D1C269012A03D1026A002A85
:100EC00000F08580012910D18268012A0DD1C26805
:100ED000012A0AD1026942B9426932B9826922B94A
:100EE000C26912B9026A002A6DD099B982688AB9BA
:100EF000C2687AB902696AB942695AB98269012A33
:100F000008D1C269012A05D1026A012A02BF08215B
:100F10000165704701290FD18268012A0CD1C2688E
:100F200052B9026942B9426932B9826922B9C269C9
:100F300012B9026A002A3ED091B9826882B9C268A9
:100F400072B9026962B9426952B9826942B9C26929
:100F5000012A05D1026A012A02BF0B2101657047EF
:100F600001290DD182685AB9C2684AB902693AB9F1
:100F700042692AB982691AB9C2690AB9026AD2B148
:100F800001B1704781680029FBD1C1680029F8D1FF
:100F900001690029F5D141690029F2D1816900294F
:100FA00018BF7047C1690029EBD1016A012904BF4C
:100FB0000B21016570476FF00A01016570476FF002
:100FC0000501016570476FF0070101657047062153
:100FD00001657047416800294ED1826882B9C268B4
:100FE000012A0DD10269012A0AD14269012A07D1D9
:100FF00082692AB9C2691AB9026A002A00F0B88067
:10100000D1BB826882B9C26872B90269012A0BD168
:101010004269012A08D18269012A05D1C2691AB937
:10102000026A002A00F0B08031BB8268012A0FD129
:10103000C268012A0CD10269012A09D142693AB970
:1010400082692AB9C2691AB9026A002A00F0A0802E
:1010500091B9826882B9C26872B9026962B942699B
:10106000012A09D18269012A06D1C269012A03D164
:10107000026A002A00F08F80012910D18268012ABB
:101080000DD1C268012A0AD1026942B9426932B956
:10109000826922B9C26912B9026A002A6BD0A1B969
:1010A000826892B9C26882B9026972B9426962B94A
:1010B0008269012A09D1C269012A06D1026A012A7C
:1010C00002BF6FF008010165704701290FD18268E6
:1010D000012A0CD1C26852B9026942B9426932B9D7
:1010E000826922B9C26912B9026A002A46D099B946
:1010F00082688AB9C2687AB902696AB942695AB91A
:1011000082694AB9C269012A06D1026A012A02BF6C
:101110006FF00E010165704701290DD182685AB93F
:10112000C2684AB902693AB942692AB982691AB9E8
:10113000C2690AB9026A22B301B170478168002905
:10114000FBD1C1680029F8D101690029F5D14169B5
:101150000029F2D18169002918BF7047C1690029AF
:10116000EBD1016A012904BF6FF0130101657047DB
:101170000021016570470921016570470F21016554
:1011800070471421016570474FF0FF3101657047CA
:101190000421016570476FF003010165704700008D
:1011A000F0B581B00446006DD4E91723616D851850
:1011B000626E411A584302FB0100A165E56500F02B
:1011C00017FBA66E0746284600F012FB0146304684
:1011D00000F026FB394600F08DFA00F0EDFA94F8A5
:1011E0007C10E064012909D081B9D4E911120144CD
:1011F000131A01200122FFF71FFA07E0D4E91112A8
:10120000091A131801200122FFF716FA206D6065F4
:1012100001B0F0BD01707047B0B5054601661046DB
:101220001C4600F0E5FAC5E91940B0BDF0B581B043
:101230000546DDE90676C0E91112043021211C467D
:10124000FFF704F8002005F15C01C5E91300C5E9CA
:10125000150051C12870C5E91B00C5E91D0085F8BE
:101260007C00C5F87E00C5F88200A5F886002846F7
:10127000AF6601B0F0BD00000429017232D8DFE88A
:1012800001F0031322292E00D0E90023B3F5805F7B
:1012900012BF13614FF4805353614A1E032A21D8B1
:1012A000DFE802F00211181DD0E90023B3F5805FDA
:1012B00012BF53614FF48053136104290FD00329E7
:1012C00008D002290ED14FF4C8720429C26006D09A
:1012D000032907D1C8220429C26018BF70474FF400
:1012E0004871C16070470000017A022938BF704719
:1012F000D0E9032101319142016109D3002101614B
:10130000D0E90010CA6810421CBF486170470861EC
:101310007047000010B5044601209040C4E9001059
:1013200020460121FFF7A8FF204610BD41680A882A
:10133000120658BF7047026832B113784BB1531C84
:101340000360107888807047888920F08000888149
:10135000704700210160704780B5016842698A4288
:1013600008BF80BD416142F20840C4F20100012182
:101370000160FFF74DF9FFF7F7F980BD2DE9F04760
:1013800041F21801C4F2020141F60C220A60052262
:10139000C0F206024A6040F6000144F64222C4F25E
:1013A0000101CAF2A4420A604AF2AA42C4F24442CB
:1013B0004A6044F24042C4F24422C1F8002440F69C
:1013C000044144F64422C4F20101CAF6A2220A6092
:1013D0004FF60C4143F20006CFF6FF71C4F201064E
:1013E0004FF0010826F801804FF62841CFF6FF7133
:1013F000032272524FF62C41CFF6FF714AF6C772A4
:1014000072524FF61841CFF6FF7146F668027252DB
:101410004FF62041CFF6FF714FF4007272524FF633
:101420004441CFF6FF714FF4004244F20C45725232
:10143000C4F2000540F6A66125F8041C40F23911FB
:1014400044F60C07A5F8FC13C4F200070C21398000
:10145000398842F210492980C4F201094FF0E06155
:10146000C9F800100821C9F824104021B18040F2C9
:101470003E3118243180C4F200046721A4F8F0172B
:10148000B4F8F017824624F8101C4FF480712180C4
:10149000218819202180FFF7CDF92620FFF7CAF90E
:1014A0002720FFF7C7F92320FFF7C4F928884FF05A
:1014B000804140F400502880388840F40050388043
:1014C000308840F040003080A4F8E887B4F8E8079E
:1014D00008805046A9F8F087BDE8F08780B540F253
:1014E000780040F60041C2F20000C4F201010C2273
:1014F000FFF710FF80BD000080B540F2A000C2F2EF
:101500000000FFF73BFF80BD80B540F28C0040F645
:101510000041C2F20000C4F201010622FFF7FAFE08
:1015200080BD000080B540F2B80040F60001C2F274
:101530000000C4F201010022FFF7ECFE80BD0000B4
:10154000A6B0002002AC14270090204642F6EC41E1
:1015500043F2D40240F262230197FFF767FE40F2A4
:10156000DC0540F2E00640F2D807C2F20005C2F204
:101570000006C2F2000711E0204642F6EC4143F2B9
:10158000D402FFF739FA204640F2B2210022962316
:10159000FFF742FE13E02046FFF702FE0520FFF7AB
:1015A000CDF82046FFF70AFA9DF808000728F5D87D
:1015B000DFE800F0050922334F5A0466EEE72046C3
:1015C000FFF704FBE7E701200021FFF70DF82046B5
:1015D00042F2283143F2B062FFF70EFA204640F2A1
:1015E000262100223223FFF717FE2046FFF732F9AB
:1015F0002046FFF7EFFCCEE7286801210130286084
:101600000120FEF7F1FF2868042832DD452849DD76
:1016100020460321FFF7FEFDC0E702200021FEF770
:10162000E3FF204642F6EC4143F2D402FFF7E4F92F
:1016300020464FF42F7100226423FFF7EDFD204672
:10164000FFF7DEF92046FFF7ABFD2046FFF740F934
:10165000A4E73068411C082831600ADD3A2829DCFB
:10166000012044F2506106E03868411C08283960C6
:1016700015DC0120002101220023FEF7DDFF8DE7AC
:101680000120002101220023FEF7D6FF02200121C4
:10169000FEF7AAFF01200121FEF7A6FF7EE74E28F4
:1016A0003FF76AAF01200021012244F25063FEF7A8
:1016B000C3FF73E702200021FEF796FF01200021FF
:1016C000FEF792FF204643F2C82142F22832FFF78C
:1016D00093F9204640F2B22100226423FFF79CFDDB
:1016E0002046FFF79DFB2046FFF75AFD2046FFF7F7
:1016F0002BF953E790EA010F48BF81F0004100F158
:101700006281421A3CBF801A89184FEAD052A2EB7C
:10171000D1534FF07F4C1CEA410F18BF9CEA026F77
:1017200000F03B804FF0004C4CEA00204CEA0121D5
:1017300021FA03FC10EB0C0C1ED202F1FF325FEA1F
:101740001C2040EBC25038BF70471CF07F0F4FEA9F
:10175000400C18BFBCF17F4F38BF7047C3F1200366
:10176000994008BF20F00100BCF17F4F38BF70479F
:10177000A0F1C04000F01BB94FEA3C00000A40EB6A
:10178000C25028BF1CF0FF0F4FEA400CE6D018BF34
:10179000BCF17F4F38BF7047EAE79CEA026F05D083
:1017A00010EA5C0F08BF00F00040704710B500F071
:1017B000B8F800BF64FBBE3E41000B0ED3F19E02A1
:1017C00008D950F400034FEA032323FA02F048BF7C
:1017D0004042704710B500F0A4F800BF4992248041
:1017E000002070476FF0004282EA2000704700003E
:1017F00010F0004148BF4042B0FA80F310FA03F203
:10180000C3F19D030BD051EAC35101EB12205306E3
:1018100038BF704700F1010008BF20F00100704799
:101820004FF47F0C1CEAD0121EBF1CEAD11392EABF
:101830000C0F93EA0C0F00F0478090EA010F48BFAD
:1018400042F480724FF0004C4CEA00204CEA012137
:1018500002EB0302A0FB0113A2F50002002918BF4E
:1018600043F001035B0028BF4FEA330342EB2242FF
:101870005FEA132C4CEBC2502EBFBCEB436FB2F5AA
:101880007C0F70474FEA036CBCF1004F08BF20F09B
:101890000100B2F57C0F38BF70470BD582F0FF0214
:1018A00012F5803FC8BF704700F1C040D8BF00F0BC
:1018B0000040704700F5000C5FEA4C0C48BF7047D1
:1018C000B0F1C04000F073B80CEAD11390EA010FF8
:1018D00048BF42F48072624538BF634504D280EA53
:1018E000010000F00040704710B500F01AF800BF8A
:1018F0008900013E00F007B800F009B85FEA410C2A
:101900005FEA1C6C08D080EA010000F050B85FEA82
:10191000400C5FEA1C6CF6D14FF00040A0F580004F
:1019200070470EF1020E2EF0030E5EF8044B2442B7
:1019300004D44FEA4102B2F17F4F11D84FEA40037D
:10194000B3F17F4F0CD80ED14FEAD07C0CEB4C0C8E
:101950000CF1020CB2F17F4F08BF4CEBD17C04E0DC
:101960004FF0080C01E04FEAD17C0CEB4C0324FA59
:1019700003F404F00704B4F1040C06D20EEB840C5B
:10198000BDE810404CF0010C6047DFE80CF00708A0
:1019900002024FF00040A0F5800010BD0846420052
:1019A00018BFD2F1807288BF00F0004010BDFF2147
:1019B00041EAD050C005704790EA010F48BF81F05E
:1019C00000413FF59EAE421A04D882F00042A0EBDF
:1019D000020011444FEAD052A2EBD1534FF07F4C9A
:1019E0001CEA410F18BF9CEA026F4AD04FF0004C2E
:1019F0004CEA00204CEA012121FA03FCB0EB0C0C6C
:101A00000FD412F0FE0F36D05FEA4C001DD5001245
:101A100040EBC25038BF70471CF03F0F18BF7047F3
:101A20000BE05FEA1C20A2F1010240EBC25038BF7C
:101A300070471CF07F0F18BF7047C3F12003994017
:101A400014BF401E20F0010070474FEA12238008A7
:101A500008BF7047B0FA80FCA2EB0C02CCF1280C56
:101A600060FA0CF093EA122F04BF00EBC2507047EB
:101A70004FEAC3707047130A5FEADC1008BF704773
:101A8000F6E79CEA026F04D010EA5C0F08BF002062
:101A9000704710B5FFF745FF40DFF63E81F000408C
:101AA00070470000CC1A0008000000201800000059
:101AB00028010008E41A000818000020D0060000E1
:101AC000440100080DEBFFFF19EBFFFF00100000C1
:101AD00000000000004400400000000000480040FA
:041AE00014200000CE
:040000050800019559
:00000001FF
