:100000000C9434000C9451000C9451000C94510049
:100010000C9451000C9451000C9451000C9451001C
:100020000C9451000C9451000C9451000C942F012D
:100030000C9451000C9451000C9451000C945100FC
:100040000C9451000C9451000C9451000C94190123
:100050000C9451000C9451000C9451000C945100DC
:100060000C9451000C94510011241FBECFEFD8E026
:10007000DEBFCDBF11E0A0E0B1E0ECEAF2E002C0EB
:1000800005900D92A830B107D9F721E0A8E0B1E0C2
:1000900001C01D92AC30B207E1F70E9490000C94B1
:1000A00054010C94000088E38093C10086E08093A3
:1000B000C20087E690E09093C5008093C400089545
:1000C0000F931F939C013695279536952795369566
:1000D0002795A5ECB0E20E943A01DC01B295A29509
:1000E000AF70AB27BF70AB2720E034E244EF50E0A5
:1000F0000E9449018B019C01992324F401501F4F58
:100100002F4F3F4FBB2737FDBA95A32F922F812F3B
:10011000909389008093880078941F910F9108959F
:100120000E94530087E084B915B81AB88CE08BB9E7
:1001300022EE34E0309389002093880010928000F2
:100140008093810082E080936F001092080185B156
:10015000887F85B989B18C708C30C9F784E190E0D3
:100160000E94600089B18C708C30C1F384E190E012
:100170000E94600089B18C708C3081F38EE085B96B
:1001800089B18C708C3029F0809108018F5F809349
:1001900008018DE085B989B18C708C3029F080918F
:1001A00008018F5F809308018BE085B989B18C705D
:1001B0008C3029F0909108019F5F909308019091F5
:1001C00008019330A1F08EE085B989B18C708C3034
:1001D00081F48DE085B989B18C708C3061F48BE04D
:1001E00085B989B18C708C3049F2E2E005C0E3E05A
:1001F00003C0E0E001C0E1E0843049F4F0E0EE0F3C
:10020000FF1FE050FF4F808180930B010AC08830B0
:1002100041F4F0E0EE0FFF1FE050FF4F818180932B
:100220000B0180910B0180930A0181E08093090109
:100230008CCF1F920F920FB60F9211248F93809143
:100240000901813031F480910A018093C600109237
:1002500009018F910F900FBE0F901F9018951F925C
:100260000F920FB60F921124F8940F900FBE0F90BB
:100270001F901895A29FB001B39FC001A39F700D5E
:10028000811D1124911DB29F700D811D1124911D9E
:1002900008950E943A01A59F900DB49F900DA49FD0
:0C02A000800D911D11240895F894FFCFEB
:0802AC003430353136323733AE
:00000001FF
