:020000040800F2
:100000009006002089010008910100089301000872
:100010009501000897010008990100080000000000
:100020000000000000000000000000009B0100082C
:100030009D010008000000009F010008B5050008B0
:10004000A3010008A3010008A3010008A301000800
:10005000A3010008A3010008A30100086102000831
:10006000A3010008A3010008A3010008A3010008E0
:10007000A3010008A3010008A3010008A3010008D0
:10008000A3010008A3010008A3010008A3010008C0
:10009000A3010008A3010008A301000885020008CD
:1000A000A3010008A3010008A30100082506000819
:1000B000A3010008A3010008A3010008A301000890
:1000C000A3010008A3010008A301000865040008BB
:1000D000A3010008A3010008A3010008A301000870
:1000E00045020008A3010008A301000800F002F87F
:1000F00000F03AF80AA090E8000C82448344AAF188
:100100000107DA4501D100F02FF8AFF2090EBAE885
:100110000F0013F0010F18BFFB1A43F0010318473B
:10012000F00B0000100C0000103A24BF78C878C112
:10013000FAD8520724BF30C830C144BF04680C60ED
:10014000704700000023002400250026103A28BF35
:1001500078C1FBD8520728BF30C148BF0B60704739
:100160001FB51FBD10B510BD00F031F81146FFF7E7
:10017000F7FF00F081FC00F04FF803B4FFF7F2FF47
:1001800003BC00F057F800000948804709480047C1
:10019000FEE7FEE7FEE7FEE7FEE7FEE7FEE7FEE737
:1001A000FEE7FEE704480549054A064B7047000094
:1001B000CD050008ED00000890000020900600200A
:1001C00090020020900200207047704770477546EB
:1001D00000F02CF8AE4605006946534620F00700B3
:1001E000854618B020B5FFF7DDFFBDE820404FF091
:1001F00000064FF000074FF000084FF0000BAC4630
:10020000ACE8C009ACE8C009ACE8C009ACE8C0097A
:1002100021F007018D46704710B50446AFF300800A
:100220002046BDE81040FFF7A8BF00000048704717
:100230000800002001491820ABBEFEE7260002009E
:100240007047000080B54FF4805000F033F800286C
:1002500008BF80BD4FF4805000F026F880BD00003C
:1002600080B5022000F026F8002808BF80BD40F2CB
:100270008800C2F20000016801310160022000F034
:1002800013F880BD80B5802000F014F8002808BF66
:1002900080BD40F28400C2F20000016801310160BB
:1002A000802000F001F880BD40F21441C4F2010149
:1002B0000860704740F20041C4F201010A684969D0
:1002C0000240084018BF0120002A18BF0122104038
:1002D000704700002DE9F041CA7802F00F0CD306F8
:1002E00044BF8B784CEA030C09880B0621D00568C3
:1002F00000234FF001084FF00F0E002608E000BF6A
:10030000282A08BF47610136082E03F104030FD0E5
:1003100008FA06F70F42F6D00EFA03F425EA0404B1
:100320000CFA03F5482A45EA0405E9D10761EAE732
:100330000560B1F5807F38BFBDE8F08144680023D7
:100340004FF4807E4FF00F08002607E0282A08BFF0
:1003500047610136082E03F1040310D00EFA06F7A8
:1003600007EA0105BD42F4D108FA03F5AC430CFAE3
:1003700003F5482A44EA0504E8D10761E9E7446047
:10038000BDE8F081C068084018BF01207047000038
:1003900041617047002941F21C01C4F202010A6860
:1003A0000CBF22EA0000104308607047002941F2A8
:1003B0001801C4F202010A680CBF22EA00001043CF
:1003C0000860704710B541F20404C4F202042268C8
:1003D00002F00C02082A41F20022C0F27A021CD17B
:1003E0002368D4F800C0C3F3834E5FEACC330EF128
:1003F000020C06D440F60012C0F23D020CFB02F2E1
:100400000BE023689B0302D40CFB02F205E040F6EC
:100410000012C0F23D020CFB02F20260226840F6BC
:100420000053C2F30312C0F600039A5C0168D14086
:1004300041602268C2F302229A5C21FA02F28260D1
:100440002268C2F3C2229A5C40F6FC43D140C160EC
:100450002268C0F60003C2F381329A5CB1FBF2F16C
:10046000016110BD70B543F20004C4F201042046DE
:1004700000F038F840F28001C2F20001A4F52055E6
:10048000087028468021FFF77DFF40F26C06C2F21B
:1004900000063168012808D1A1B12046FF2100F0F3
:1004A00023F830680138306070BD40F28100C2F23C
:1004B000000002781AB1002904BF0021017000F089
:1004C0008FFA70BD28468021FFF762FF2046002189
:1004D00000F00AF840F28100C2F200000121017030
:1004E00070BD0000808970478181704780B500F041
:1004F00001F880BD82B041F204000021C4F2020084
:100500000191009150F8041C41F4803140F8041C22
:1005100050F8041C01F4003100910199013101915E
:10052000009919B90199B1F5A06FF1D150F8041CE7
:10053000890354BF0021012100910099012936D17E
:1005400042F20001C4F202010A6842F010020A609D
:100550000A6822F007020A600A6842F002020A6092
:100560000168016001680160016841F48061016017
:10057000016821F47C110160016841F4E811016017
:1005800050F8041C41F0807140F8041C50F8041C21
:100590008901FBD5016821F003010160016841F088
:1005A00002010160016801F00C010829FAD102B0D2
:1005B0007047000040F27400C2F200000168002998
:1005C00008BF7047016801390160704780B541F28A
:1005D0000000C4F202000168002241F00101016044
:1005E0004168CFF6FF021140416001684FF6FF728B
:1005F000CFF6F66211400160016821F480210160AC
:10060000416821F4FE0141604FF41F018160FFF752
:100610006DFF4EF60850CEF200004FF00061016011
:1006200080BD0000F0B581B042F60044C4F2010480
:100630002046082100F062F8A0B340F27805C2F22B
:100640000005287820B3204600F056F840F27C06DA
:10065000C2F200063168002708443060306840F27A
:100660006801C2F200010860086848F68901C8F60E
:100670008801A0FB0101480940F27001C2F20001AB
:1006800008602046002100F0CBF82F70376009E0A9
:10069000012028702046002100F0CAF820460221DF
:1006A00000F0BEF82046092100F00CF801B0F0BDC2
:1006B0000288002942F0800308BF22F080030380F3
:1006C00070470000C943018270470000028800297A
:1006D00042F0010308BF22F00103038070470000CD
:1006E000B0F84420002913466FF3DF3318BF42F4FB
:1006F0000043A0F844307047808C7047028A80899C
:100700000A4018BF0122084018BF0120104070475E
:1007100010B5028C22F001020284048CB0F804E0CF
:10072000038B0A8823F0730343EA020C0A8924F03E
:1007300002031A43A0F180434C88A3F596334FEA95
:10074000B323072B42EA040215D8012404FA03F369
:1007500013F0E50F0FD04B8922F00C0223F00403B5
:100760008C881A4322438C892EF4407ECB8944EA3C
:100770000E0444EA030EA0F804E0A0F818C0C988EB
:100780008186028410BD0000028B22F00802114312
:100790000183704710B5028C22F010020284048C91
:1007A000B0F804E0038B0A8823F4E64343EA022C02
:1007B0000A8924F0200343EA02124B8843F20044E2
:1007C000C4F20104A04242EA031205D042F60043FB
:1007D000C4F20103984212D14B896FF0400422F019
:1007E000C00204EA03138C881A4342EA04128C897B
:1007F0002EF4406ECB894EEA840444EA830EA0F8BE
:1008000004E0A0F818C0C9880187028410BD000068
:10081000028B22F4006242EA01210183704700004A
:10082000028C22F4007242EA012101847047000028
:100830008184704740F6FF33B0F800C0C4F2000373
:1008400098420FDCB0F1804F1ED040F20043C4F25A
:100850000003984218D040F60003C4F20003984207
:1008600012D016E040F60043C4F2000398420BD0C9
:1008700043F20043C4F20103984205D042F600431C
:10088000C4F20103984204D14B882CF0700243EA71
:10089000020C41F2004240F48063C4F20002934231
:1008A00004D0CA882CF4407342EA030CA0F800C0BC
:1008B0008A888285A0F18042A2F596320B884FEAA1
:1008C000B222072A038507D8012303FA02F212F0A5
:1008D000E50F1CBF097A0186012181827047000063
:1008E00010B544F20044C4F2000400BF20462021A9
:1008F00000F012F80028F9D0204600F06DF8C0B2E0
:1009000010BD00008289002942F4005308BF22F480
:1009100000538381704700000088084018BF012001
:100920007047000070B586B00446008A0D46C9883D
:1009300020F4405008432082A0894EF6F31108406D
:10094000A9882A896B89084310431843A081A08A8B
:10095000A98920F44070084301AEA0823046FFF719
:1009600031FD43F6000106F10800C4F201018C429A
:1009700008BF06F10C0000681922B4F90C105043AE
:100980002A680223002948BF012302FA03F1B0FBC1
:10099000F1F048F21F51C5F2EB11A0FB01235A09F7
:1009A0006FF0630302FB0300B4F90C300426002B44
:1009B00048BF032600FA06F000F13200A0FB010157
:1009C0004FF00F0048BF072000EA511040EA021024
:1009D000208106B070BD000080886FF35F207047F3
:1009E0004EF28410CEF2000008210160BFF34F8F59
:1009F000BFF36F8F7047000010B584B00138ADF8B9
:100A00000600042042F600446021ADF804000020F6
:100A1000C4F201040091ADF80A0069462046FFF7D0
:100A200077FE20460821FFF7AFFE20460121FFF7A1
:100A300057FE04B010BD000010B584B0602101382D
:100A400042F60044C0F20101ADF806000020C4F2F5
:100A500001040091ADF80400ADF808006946204695
:100A6000FFF756FE20460821FFF78EFE20460121A3
:100A7000FFF736FE04B010BD00F0EEF800F0B4F859
:100A800040F20004C2F20004FFF72AFFA0F1300197
:100A9000072920701ED8DFE801F00C14242C35043F
:100AA0001D3D01204FF4C8710122642300F03AF883
:100AB000EAE701204FF4A0710122B42300F032F8DC
:100AC000E2E700204FF4877100224FF4877300F0B3
:100AD00029F8D9E7012000210122002300F022F8A3
:100AE000D2E70120B42101224FF4A07300F01AF8DC
:100AF000CAE701204FF4967101224FF4967300F07B
:100B000011F8C1E70120642101224FF4D27300F0F3
:100B100009F8B9E70120FA210122FA2300F002F8CE
:100B2000B2E70000B0B51C46002940F2E73308BF29
:100B30000121994228BF1946002C08BF01249C427C
:100B400028BF1C4600281546084602D0FFF774FF50
:100B500001E0FFF751FF204615B100F025F8B0BDC8
:100B600000F002F8B0BD000010B584B0602101387B
:100B700042F60044C0F20101ADF806000020C4F2C4
:100B800001040091ADF80400ADF80A006946204662
:100B9000FFF700FE20460821FFF73AFE204601211C
:100BA000FFF79EFD04B010BD10B584B00138ADF85C
:100BB0000600042042F600446021ADF80400002045
:100BC000C4F201040091ADF80A0069462046FFF71F
:100BD000E1FD20460821FFF71BFE20460121FFF71B
:100BE0007FFD04B010BD000070B586B00520012166
:100BF000FFF7DCFB44F200440420C4F20004C1F619
:100C0000020004F5444505AE059028463146FFF73D
:100C100061FB0820ADF8140004208DF81700284669
:100C20003146FFF757FB4FF400300121FFF7B2FBCD
:100C30004FF41650019000204FF440210290039190
:100C4000ADF8100001A92046FFF76CFE20460121F7
:100C5000FFF758FE06B070BDF0B585B00C2001213D
:100C6000FFF7A4FB01200121FFF7A0FB42F600449F
:100C700040F20010C4F20104C1F60200A4F51055C0
:100C800004AE049028463146FFF724FB42F20000F0
:100C9000C1F60200A4F50057049038463146FFF72C
:100CA00019FB44F20000C1F60200049038463146B8
:100CB000FFF710FB40F20020C1F602000490284626
:100CC0003146FFF707FB4FF400600121FFF76EFB91
:100CD0004720019040F2E730029000208DF80C0090
:100CE00001A92046FFF7A6FD20460121FFF7EEFCF3
:100CF00020460121FFF7DCFC05B0F0BD0204060828
:100D000000000000010203040102030406070809B1
:100D1000300D000800000020040000002801000839
:100D2000340D000808000020880600004401000877
:040D300014000000AB
:040000050800018965
:00000001FF
