:020000040800F2
:10000000E00600208D010008950100089701000816
:10001000990100089B0100089D01000800000000F4
:100020000000000000000000000000009F01000828
:10003000A101000800000000A3010008A5010008BC
:10004000A7010008A7010008A7010008A7010008F0
:10005000A7010008A7010008A7010008A7010008E0
:10006000A7010008A7010008A7010008A7010008D0
:10007000A7010008A7010008A7010008A7010008C0
:10008000A7010008A7010008A7010008A7010008B0
:10009000A7010008A7010008A7010008A7010008A0
:1000A000A7010008F5030008A7010008A701000840
:1000B000A7010008A7010008A7010008A701000880
:1000C000A7010008A7010008A70100086D020008A9
:1000D000A7010008A7010008310400084104000836
:1000E000A7010008A7010008A701000800F002F816
:1000F00000F03CF80AA090E8000C82448344AAF186
:100100000107DA4501D100F031F8AFF2090EBAE883
:100110000F0013F0010F18BFFB1A43F0010318473B
:10012000F408000014090000103A24BF78C878C110
:10013000FAD8520724BF30C830C144BF04680C60ED
:10014000704700000023002400250026103A28BF35
:1001500078C1FBD8520728BF30C148BF0B60704739
:100160001FB500F037F81FBD10B510BD00F044F802
:100170001146FFF7F5FF00F003FC00F062F803B44E
:10018000FFF7F2FF03BC00F06BF80000094880475E
:1001900009480047FEE7FEE7FEE7FEE7FEE7FEE769
:1001A000FEE7FEE7FEE7FEE704480549054A064B81
:1001B000704700009D030008ED000008E0000020EB
:1001C000E0060020E0020020E002002070477047B7
:1001D0007047000070B5064C7C44064D7D4404E039
:1001E0002046016808448047241DAC42F8D170BD08
:1001F000580800005C080000754600F02BF8AE4679
:1002000005006946534620F00700854618B020B522
:10021000FFF7CAFFBDE820404FF000064FF000078F
:100220004FF000084FF0000BAC46ACE8C009ACE85A
:10023000C009ACE8C009ACE8C00921F007018D464F
:10024000704710B50446AFF300802046BDE810406B
:10025000FFF795BF00487047180000207047000066
:1002600001491820ABBEFEE72600020080B543F22C
:100270000400C4F201000188090644BF81885FEAD6
:10028000817114D48188C90710D0018980888007C2
:1002900058BF80BD40F2A000C2F2000002680174A5
:1002A000511C016001F0070000F01AF980BD40F216
:1002B000A001C2F200014A68013A4A6002D0FF215F
:1002C0000181DFE700210181018821F080010180A7
:1002D000D8E7000080B500F001F880BD82B041F29F
:1002E00004000021C4F202000191009150F8041CA6
:1002F00041F4803140F8041C50F8041C01F4003132
:100300000091019901310191009919B90199B1F553
:10031000A06FF1D150F8041C890354BF00210121C2
:1003200000910099012936D142F20001C4F2020184
:100330000A6842F010020A600A6822F007020A60A6
:100340000A6842F002020A60016801600168016007
:10035000016841F480610160016821F47C11016051
:10036000016841F4E811016050F8041C41F080710B
:1003700040F8041C50F8041C8901FBD5016821F0E9
:1003800003010160016841F002010160016801F0B0
:100390000C010829FAD102B07047000080B541F283
:1003A0000000C4F202000168002241F00101016076
:1003B0004168CFF6FF021140416001684FF6FF72BD
:1003C000CFF6F66211400160016821F480210160DE
:1003D000416821F4FE0141604FF41F018160FFF785
:1003E00079FF4EF60850CEF200004FF00061016038
:1003F00080BD00002420C4F20000018840F2A00269
:10040000C2F200029160B0F80008D06042F61040DD
:10041000C4F20100018821F0010101800421516032
:10042000B0F8F41341F08001A0F8F4137047000015
:1004300080B540F20400C2F2000000F097F980BDE0
:1004400080B540F20C00C2F2000000F08FF980BDD0
:1004500080B500F063FA00F077FA00F083FA80BD0F
:1004600080B500F069FA80BD40F2CC00C2F2000015
:10047000006843F22D41CFF6A911A0FB0101880AC3
:100480007047000080B540F27800C2F2000000F032
:100490004BF940F28C00C2F2000000F045F940F246
:1004A000B800C2F2000000F03FF980BDF0B581B0A5
:1004B0000E464AF6C7771C461546B94228BF3E4647
:1004C00000F0B2F8304600F0A9F82846BC4238BF28
:1004D000274600F0C1F8384600F0B8F801B0F0BD8A
:1004E00080B508B3072836D142F62040C4F2010097
:1004F00030F8041C46F60102914205D140F2CC01CD
:10050000C2F2000100220A60018821F4807101809A
:100510004AF61471818346F6700120F8041C0188A4
:1005200041F48061018080BD42F62040C4F20100A8
:10053000018821F48061018046F6010120F8041C45
:10054000018841F48071018030F8101C21F008010D
:1005500020F8101C80BD42F62041C4F2010131F8A0
:10056000102C120758BF80BD8B8B4AF6C87C00FB4D
:100570000C3040F2CC0EC2F2000ECEF800008A8B96
:100580008B889A4284BFA0EB0C00CEF8000031F8B3
:10059000100C20F0080021F8100C088820F480705E
:1005A000088046F6030021F8040C80BDB0B560B1A8
:1005B00040F2A004C2F2000421680D18204600F0A9
:1005C000EBF820688542F9D1B0BD40F2A000C2F23C
:1005D000000000F0E1F8B0BD80B540F2D000C2F2FA
:1005E000000001684A1C0729026016DB0021016037
:1005F00040F60800C4F2010040F200010068C2F2B7
:1006000000010A6800F48050824208BF80BD086083
:10061000002818BF012000F031F880BD42F63441B7
:10062000C4F201010880704742F62041C4F2010182
:100630000A88042322F005020A800A88002818BFCD
:10064000012342EA030008807047000042F6384167
:10065000C4F201010880704742F62041C4F2010152
:100660000A88102322F050020A800A88002818BF46
:10067000402342EA0300088070470000002808BFBA
:10068000704740F2D400C2F2000001684A1E18BF51
:100690004A1C026070470000002848BF704700F005
:1006A0001F01012202FA01F14EF200124009CEF2BE
:1006B000000242F8201070470429017232D8DFE8A6
:1006C00001F0031322292E00D0E90023B3F5805F47
:1006D00012BF13614FF4805353614A1E032A21D87D
:1006E000DFE802F00211181DD0E90023B3F5805FA6
:1006F00012BF53614FF48053136104290FD00329B3
:1007000008D002290ED14FF4C8720429C26006D065
:10071000032907D1C8220429C26018BF70474FF4CB
:100720004871C16070470000017A022938BF7047E4
:10073000D0E9032101319142016109D30021016116
:10074000D0E90010CA6810421CBF486170470861B8
:100750007047000010B5044601209040C4E9001025
:1007600020460121FFF7A8FF204610BD41680A88F6
:10077000120658BF7047026832B113784BB1531C50
:100780000360107888807047888920F08000888115
:10079000704700210160704780B5016842698A4254
:1007A00008BF80BD416142F20840C4F2010001214E
:1007B0000160FFF767FEFFF70FFF80BD2DE9F047EF
:1007C00041F21801C4F2020141F60C220A6005222E
:1007D000C0F206024A6040F6000144F64222C4F22A
:1007E0000101CAF2A4420A604AF2AA42C4F2444297
:1007F0004A6044F24042C4F24422C1F8002440F668
:10080000044144F64422C4F20101CAF6A2220A605D
:100810004FF60C4143F20006CFF6FF71C4F2010619
:100820004FF0010826F801804FF62841CFF6FF71FE
:10083000032272524FF62C41CFF6FF714AF6C7726F
:1008400072524FF61841CFF6FF7146F668027252A7
:100850004FF62041CFF6FF714FF4007272524FF6FF
:100860004441CFF6FF714FF4004244F20C457252FE
:10087000C4F2000540F6A66125F8041C40F23911C7
:1008800044F60C07A5F8FC13C4F200070C213980CC
:10089000398842F210492980C4F201094FF0E06121
:1008A000C9F800100821C9F824104021B18040F295
:1008B0003E3118243180C4F200046721A4F8F017F7
:1008C000B4F8F017824624F8101C4FF48071218090
:1008D000218819202180FFF7DFFE2620FFF7DCFEAC
:1008E0002720FFF7D9FE2320FFF7D6FE28884FF0F8
:1008F000804140F400502880388840F4005038800F
:10090000308840F040003080A4F8E887B4F8E80769
:1009100008805046A9F8F087BDE8F08780B540F21E
:10092000780040F60041C2F20000C4F201010C223E
:10093000FFF710FF80BD000080B540F2A000C2F2BA
:100940000000FFF73BFF80BD80B540F28C0040F611
:100950000041C2F20000C4F201010622FFF7FAFED4
:1009600080BD000080B540F2B80040F60001C2F240
:100970000000C4F201010022FFF7ECFE80BD000080
:10098000012047F23051012247F23053FFF78EFD2C
:100990000520FFF70BFE40F2D804C2F2000405E088
:1009A0000120002101220023FFF780FD0120FFF735
:1009B000FDFDFFF759FD206020682F28F0D9206841
:1009C00030280BD32068462808D8012042F60411AD
:1009D000012242F60413FFF769FDE7E72068472884
:1009E0000CD320685A2809D8012042F6E061012280
:1009F00042F6E063FFF75AFDD8E700BF20685B28A6
:100A0000D4D3012043F2BC41012243F2BC43FFF79F
:100A10004DFDCBE73C0A0008000000201400000058
:100A200028010008500A000818000020C80600002D
:100A3000440100081DFAFFFF29FAFFFF0010000023
:100A4000000000000044004000000000004800409A
:040000050800018D61
:00000001FF
