:020000040800F2
:10000000D806002091010008990100089B01000812
:100010009D0100089F010008A101000800000000E8
:10002000000000000000000000000000A301000824
:10003000A501000800000000A7010008E50800086D
:10004000AB010008AB010008AB010008AB010008E0
:10005000AB010008AB010008AB0100085D0400081B
:10006000AB010008AB010008AB010008AB010008C0
:10007000AB010008AB010008AB010008AB010008B0
:10008000AB010008AB010008AB010008AB010008A0
:10009000AB010008AB010008AB01000881040008B7
:1000A000AB010008AB010008AB010008F90B000828
:1000B000AB010008AB010008AB010008AB01000870
:1000C000AB010008AB010008AB010008C506000841
:1000D000AB010008AB010008AB010008AB01000850
:1000E00041040008AB010008AB01000800F002F871
:1000F00000F03FF80AA090E8000C82448344AAF183
:100100000107DA4501D100F034F8AFF2090EBAE880
:100110000F0013F0010F18BFFB1A43F0010318473B
:100120002410000044100000103A24BF78C878C1A1
:10013000FAD8520724BF30C830C144BF04680C60ED
:10014000704700000023002400250026103A28BF35
:1001500078C1FBD8520728BF30C148BF0B60704739
:10016000642900F07D80002070471FB51FBD10B5C9
:1001700010BD00F02AF91146FFF7F7FF00F044FF29
:1001800000F048F903B4FFF7F2FF03BC00F050F9A8
:100190000948804709480047FEE7FEE7FEE7FEE71B
:1001A000FEE7FEE7FEE7FEE7FEE7FEE70448054957
:1001B000054A064B704700006D090008ED00000875
:1001C000D8000020D8060020D8020020D802002045
:1001D0000FB41CB5074B06AA7B44694600900598EE
:1001E00000F0DBF80020694600F0EAF81CBC5DF87E
:1001F00014FB0000E50100002DE9F0410E46044625
:10020000002020622046E168884730B3252805D0C9
:10021000D4E901219047206A401CF2E7E1682046BA
:1002200000278847050018D0A5F14100192802D8F9
:1002300020354FF400673246294620462760FFF7F5
:100240008FFF40B1012804D0F61D26F007060836BE
:10025000D8E7361DD6E72846DAE7206ABDE8F08100
:100260002DE9F0410646002410687529314616A58F
:1002700010D0AFF30080002802DA404213A507E057
:1002800031688A0701D512A502E0490704D511A5F6
:10029000012401E0AFF3008000210A2206F12407C7
:1002A00009E0B0FBF2FCB0FBF2F302FB1C003030C3
:1002B00078541846491C0028F3D123462A46304674
:1002C000BDE8F04100F00BB8000000002D00000078
:1002D0002B000000200000007047704770472DE998
:1002E000F0470D4699469246044600F124080168FD
:1002F000880604D5E06921F01001216000E00120AA
:10030000A84201DD471B00E00027A1697A1902EB32
:100310000900081AA0612078C00602D42046AFF375
:100320000080002608E0D4E901211AF80600904771
:10033000206A401C761C20624E45F4DB2078C00603
:100340000AD52046AFF3008006E0D4E90121302031
:100350009047206A401C2062381EA7F10107F4DC98
:1003600007E0D4E9012118F805009047206A401CF5
:100370002062281EA5F10105F3DC2046AFF30080C2
:100380002078000602D50220BDE8F0870120FBE7B7
:1003900001694A1C02610878704700B58FB0CDE949
:1003A00001310021059105497944CDE90310114639
:1003B0006846FFF721FF0FB000BD0000E5FFFFFF1B
:1003C0000A6802F8010B0A607047754600F02CF8C5
:1003D000AE4605006946534620F00700854618B032
:1003E00020B5FFF7E3FEBDE820404FF000064FF0D8
:1003F00000074FF000084FF0000BAC46ACE8C00916
:10040000ACE8C009ACE8C009ACE8C00921F00701BC
:100410008D46704710B50446AFF300802046BDE816
:100420001040FFF7AFBE00000048704708000020F2
:1004300001491820ABBEFEE726000200704700000D
:1004400080B54FF4805000F033F8002808BF80BD1D
:100450004FF4805000F026F880BD000080B50220E7
:1004600000F026F8002808BF80BD40F2D000C2F29C
:100470000000016801310160022000F013F880BD26
:1004800080B5802000F014F8002808BF80BD40F23D
:10049000CC00C2F20000016801310160802000F050
:1004A00001F880BD40F21441C4F2010108607047B8
:1004B00040F20041C4F201010A6849690240084063
:1004C00018BF0120002A18BF012210407047000009
:1004D0002DE9F041CA7802F00F0CD30644BF8B78A7
:1004E0004CEA030C09880B0621D0056800234FF065
:1004F00001084FF00F0E002608E000BF282A08BFB1
:1005000047610136082E03F104030FD008FA06F7FD
:100510000F42F6D00EFA03F425EA04040CFA03F5B0
:10052000482A45EA0405E9D10761EAE70560B1F523
:10053000807F38BFBDE8F081446800234FF4807E9F
:100540004FF00F08002607E0282A08BF4761013650
:10055000082E03F1040310D00EFA06F707EA01058E
:10056000BD42F4D108FA03F5AC430CFA03F5482A6E
:1005700044EA0504E8D10761E9E74460BDE8F08199
:10058000C068084018BF01207047000041617047F3
:100590000161704710B5C17800294EF20011CEF20A
:1005A00000011AD04EF60C52CEF200021268072358
:1005B00023EA12220F23C2F1040C23FA02F2437839
:1005C000847890F800E003FA0CF322401A431201F9
:1005D00001EB0E0383F8002300E080310078012353
:1005E00000F01F0203FA02F2C0F3421041F820208B
:1005F00010BD0000002941F21C01C4F202010A688A
:100600000CBF22EA0000104308607047002941F245
:100610001801C4F202010A680CBF22EA000010436C
:100620000860704710B541F20404C4F20204226865
:1006300002F00C02082A41F20022C0F27A021CD118
:100640002368D4F800C0C3F3834E5FEACC330EF1C5
:10065000020C06D440F60012C0F23D020CFB02F27E
:100660000BE023689B0302D40CFB02F205E040F68A
:100670000012C0F23D020CFB02F20260226841F25D
:100680003413C2F30312C0F600039A5C0168D14030
:1006900041602268C2F302229A5C21FA02F282606F
:1006A0002268C2F3C2229A5C41F22013D140C16099
:1006B0002268C0F60003C2F381329A5CB1FBF2F10A
:1006C000016110BD70B543F20004C4F2010420467C
:1006D00000F038F840F2C801C2F20001A4F520553C
:1006E000087028468021FFF74BFF40F2B406C2F2A3
:1006F00000063168012808D1A1B12046FF2100F091
:1007000023F830680138306070BD40F2C900C2F291
:10071000000002781AB1002904BF0021017000F026
:1007200019FC70BD28468021FFF730FF20460021CC
:1007300000F00AF840F2C900C2F200000121017085
:1007400070BD00008089704781817047F0B589B025
:100750000C2001210126FFF759FF01200121FFF79D
:1007600055FF40F2004042F60044C2F60300C4F2D6
:10077000010408AD0890A4F510502946FFF7A8FE23
:10078000082001210827FFF741FF48F20000C1F2CD
:1007900002000890A4F500502946FFF799FE4FF497
:1007A00000600121FFF732FF4720059042F20F70F1
:1007B0000690002505A920468DF81C5000F0EAFAA5
:1007C0002046012100F062FA02A92046CDE9027616
:1007D000ADF8105000F076FA40F21B20C0F2001085
:1007E000019001A8FFF7D6FE20460921012200F062
:1007F0009BFA09B0F0BD000080B500F001F880BDA3
:1008000082B041F204000021C4F202000191009183
:1008100050F8041C41F4803140F8041C50F8041CCA
:1008200001F400310091019901310191009919B948
:100830000199B1F5A06FF1D150F8041C890354BFA0
:100840000021012100910099012936D142F20001D5
:10085000C4F202010A6842F010020A600A6822F03B
:1008600007020A600A6842F002020A600168016039
:1008700001680160016841F480610160016821F450
:100880007C110160016841F4E811016050F8041C1A
:1008900041F0807140F8041C50F8041C8901FBD51C
:1008A000016821F003010160016841F0020101606B
:1008B000016801F00C010829FAD102B0704700006C
:1008C000B0B501380024B4EB106F18BFB0BD4EF2C4
:1008D0001005CEF20005686000F048FB0720AC6010
:1008E0002860B0BD40F2BC00C2F2000001680029DF
:1008F00008BF7047016801390160704741F2040088
:10090000C4F20200016801F00C01082941F2002143
:10091000C0F27A0117D102680368C2F38342DB0395
:1009200002F1020205D440F60011C0F23D0151432C
:1009300009E003689B0301D4514304E040F6001131
:10094000C0F23D01514340F20002C2F200021160C8
:10095000006841F22411C0F30310C0F60001085CE6
:10096000116821FA00F010607047000080B541F274
:100970000000C4F202000168002241F001010160A0
:100980004168CFF6FF021140416001684FF6FF72E7
:10099000CFF6F66211400160016821F48021016008
:1009A000416821F4FE0141604FF41F018160FFF7AF
:1009B00023FF4EF60850CEF200004FF000610160B8
:1009C00080BD000010B5B0F820E042EA03122EF01E
:1009D000010EA0F820E0048B40F6FF33B0F820E0D1
:1009E00024F0F304C4F200034FF6FC7C984242EA80
:1009F00004020DDCB0F1804F1ED040F20043C4F27F
:100A00000003984218D040F60003C4F200030FE040
:100A100040F60043C4F2000398420DD042F6004372
:100A2000C4F20103984207D043F20043C4F2010329
:100A3000984218BFACF1080C0EEA0C03194341F0C0
:100A400001010283018410BD10B5B0F820C01B0362
:100A50002CF0100CA0F820C0B0F818E040F6FF44CD
:100A600043EA022240F6FF33B0F820C004EA0E0445
:100A7000C4F20003984242EA04020FDCB0F1804F56
:100A80001ED040F20043C4F20003984218D040F652
:100A90000003C4F20003984212D01AE040F600436B
:100AA000C4F2000398420BD043F20043C4F20103A6
:100AB000984205D042F60043C4F20103984208D19F
:100AC0000B012CF03001194341F010010283018425
:100AD00010BD2CF0B003F6E780B5B0F820C042EAB4
:100AE00003122CF4807CA0F820C0B0F81CE040F683
:100AF000FF33B0F820C02EF0F30EC4F2000398428A
:100B000042EA0E020FDCB0F1804F1ED040F20043EB
:100B1000C4F20003984218D040F60003C4F2000368
:100B2000984212D01AE040F60043C4F20003984203
:100B30000BD043F20043C4F20103984205D042F6C1
:100B40000043C4F20103984208D10B022CF4407117
:100B5000194341F480718283018480BD2CF4306399
:100B6000F6E7000010B5B0F820C01B032CF4805C41
:100B7000A0F820C0B0F81CE040F6FF4443EA02228F
:100B800040F6FF33B0F820C004EA0E04C4F20003BC
:100B9000984242EA04020FDCB0F1804F1ED040F2CE
:100BA0000043C4F20003984218D040F60003C4F298
:100BB0000003984212D01AE040F60043C4F200034A
:100BC00098420BD043F20043C4F20103984205D08F
:100BD00042F60043C4F20103984208D10B032CF4FF
:100BE0004051194341F480518283018410BD46F67F
:100BF000FF5303EA0C03F4E7F0B581B042F600447A
:100C0000C4F201042046082100F052F8A0B340F2DB
:100C1000C005C2F20005287820B3204600F040F855
:100C200040F2C406C2F20006316800270844306072
:100C3000306840F2B001C2F200010860086848F66E
:100C40008901C8F68801A0FB0101480940F2B801FA
:100C5000C2F2000108602046002100F06DF82F70FC
:100C6000376009E0012028702046002100F06CF870
:100C70002046022100F060F82046092100F002F829
:100C800001B0F0BDC943018270470000028800290D
:100C900042F0010308BF22F0010303807047000007
:100CA000808C7047008A084018BF01207047000000
:100CB000028A80890A4018BF0122084018BF01201B
:100CC0001040704770B50C880D46042C06460BD0BA
:100CD000ACB96988AA882B893046FFF773FEE9888A
:100CE000304600F033F870BD6988AA882B893046F9
:100CF000FFF7AAFEE988304600F030F870BD698839
:100D0000AA882B893046082C06D1FFF7E5FEE98832
:100D1000304600F02DF870BDFFF724FFE98830461B
:100D200000F02EF870BD0000002A82890CBF22EA74
:100D30000101114381817047028C22F4007242EA62
:100D4000012101847047000081847047028B22F0EA
:100D50000C020283028B114301837047028B22F441
:100D600040620283028B42EA012101837047000046
:100D7000828B22F00C028283828B11438183704725
:100D8000828B22F440628283828B42EA012181833A
:100D90007047000040F6FF33B0F800C0C4F2000313
:100DA00098420FDCB0F1804F1ED040F20043C4F2F5
:100DB0000003984218D040F60003C4F200039842A2
:100DC00012D016E040F60043C4F2000398420BD064
:100DD00043F20043C4F20103984205D042F60043B7
:100DE000C4F20103984204D14B882CF0700243EA0C
:100DF000020C41F2004240F48063C4F200029342CC
:100E000004D0CA882CF4407342EA030CA0F800C056
:100E10008A888285A0F18042A2F596320B884FEA3B
:100E2000B222072A038507D8012303FA02F212F03F
:100E3000E50F1CBF097A01860121818270470000FD
:100E400070B5B9B144F600060C460546C4F200067A
:100E500029783046013C00F079F800BF3046402147
:100E600000F014F80028F9D0002C05F1010508BFA6
:100E700070BDEDE770BD00008289002942F4005387
:100E800008BF22F4005383817047000000880840A7
:100E900018BF01207047000070B586B00446008A74
:100EA0000D46C98820F4405008432082A0894EF6A0
:100EB000F3110840A9882A896B8908431043184315
:100EC000A081A08AA98920F44070084301AEA082C5
:100ED0003046FFF7A7FB43F6000106F10800C4F215
:100EE00001018C4208BF06F10C0000681922B4F918
:100EF0000C1050432A680223002948BF012302FA3C
:100F000003F1B0FBF1F048F21F51C5F2EB11A0FB69
:100F100001235A096FF0630302FB0300B4F90C309C
:100F20000426002B48BF032600FA06F000F1320029
:100F3000A0FB01014FF00F0048BF072000EA51104D
:100F400040EA0210208106B070BD00006FF35F21FF
:100F5000818070474EF28410CEF2000008210160BB
:100F6000BFF34F8FBFF36F8F704700004EF62350D3
:100F7000CEF20000F02101707047000040F2BC0189
:100F8000C2F20001086000BF08680028FCD1704769
:100F900010B540F20044C4F2000400BF2046012115
:100FA000FFF780FE0028F9D020460021FFF76EFEF3
:100FB00010BD000010B584B0044602200121FFF7E7
:100FC00019FB48200190601E40F20044ADF8080073
:100FD0000020C4F200048DF80C00ADF80A0001A94D
:100FE0002046FFF7D7FE20460121FFF74FFE20469F
:100FF00001210122FFF798FE04B010BD40F2B800B5
:10100000C2F200000068704700F050F8FFF79EFB46
:1010100000F024F840F26804C2F2000409A500BF01
:101020003C20FFF7ABFF00F02BF8FFF7E7FF821F34
:1010300020462946FFF7CCF820464621FFF700FF5F
:10104000EEE700BF0D5468652064697374616E63D8
:101050006520697320256420636D000080B5FFF76B
:101060004DFC40F20000C2F20000006844F6D3518B
:10107000C1F26201A0FB01018809FFF721FC80BDDC
:1010800010B540F60044C4F2010420464FF400417C
:10109000FFF77EFA0A20FFF78DFFFFF779FF204662
:1010A0004FF40041FFF772FA10BD000070B586B032
:1010B00009200121FFF7AAFA44F6000440F200409B
:1010C000C4F20004C1F6030004F5444505AE0590E2
:1010D00028463146FFF7FCF94FF40060ADF81400E4
:1010E00004208DF8170028463146FFF7F1F94FF438
:1010F00080200121FFF77EFA4FF4E13001900020BB
:101100004FF4402102900391ADF8100001A9204650
:10111000FFF7C2FE20460121FFF7AEFE06B070BD0C
:1011200002040608000000000000000001020304A1
:10113000060708090000000001020304010203047D
:1011400006070809641100080000002004000000E0
:10115000280100086811000808000020D0060000DF
:081160004401000800A24A044A
:04000005080001915D
:00000001FF
